{
  "_format": "hh-sol-artifact-1",
  "contractName": "EventBetting",
  "sourceName": "contracts/EventBetting.sol",
  "abi": [
    {
      "inputs": [
        {
          "internalType": "address",
          "name": "_stakingToken",
          "type": "address"
        },
        {
          "internalType": "uint256",
          "name": "_bettingDuration",
          "type": "uint256"
        }
      ],
      "stateMutability": "nonpayable",
      "type": "constructor"
    },
    {
      "anonymous": false,
      "inputs": [
        {
          "indexed": true,
          "internalType": "address",
          "name": "user",
          "type": "address"
        },
        {
          "indexed": false,
          "internalType": "enum EventBetting.Outcome",
          "name": "outcome",
          "type": "uint8"
        },
        {
          "indexed": false,
          "internalType": "uint256",
          "name": "amount",
          "type": "uint256"
        }
      ],
      "name": "BetPlaced",
      "type": "event"
    },
    {
      "anonymous": false,
      "inputs": [
        {
          "indexed": false,
          "internalType": "enum EventBetting.Outcome",
          "name": "winningOutcome",
          "type": "uint8"
        }
      ],
      "name": "EventResolved",
      "type": "event"
    },
    {
      "inputs": [],
      "name": "admin",
      "outputs": [
        {
          "internalType": "address",
          "name": "",
          "type": "address"
        }
      ],
      "stateMutability": "view",
      "type": "function"
    },
    {
      "inputs": [],
      "name": "bettingEndTime",
      "outputs": [
        {
          "internalType": "uint256",
          "name": "",
          "type": "uint256"
        }
      ],
      "stateMutability": "view",
      "type": "function"
    },
    {
      "inputs": [],
      "name": "eventResolved",
      "outputs": [
        {
          "internalType": "bool",
          "name": "",
          "type": "bool"
        }
      ],
      "stateMutability": "view",
      "type": "function"
    },
    {
      "inputs": [
        {
          "internalType": "enum EventBetting.Outcome",
          "name": "",
          "type": "uint8"
        }
      ],
      "name": "outcomeStakes",
      "outputs": [
        {
          "internalType": "uint256",
          "name": "",
          "type": "uint256"
        }
      ],
      "stateMutability": "view",
      "type": "function"
    },
    {
      "inputs": [
        {
          "internalType": "enum EventBetting.Outcome",
          "name": "_outcome",
          "type": "uint8"
        },
        {
          "internalType": "uint256",
          "name": "_amount",
          "type": "uint256"
        }
      ],
      "name": "placeBet",
      "outputs": [],
      "stateMutability": "nonpayable",
      "type": "function"
    },
    {
      "inputs": [
        {
          "internalType": "enum EventBetting.Outcome",
          "name": "_winningOutcome",
          "type": "uint8"
        }
      ],
      "name": "resolveEvent",
      "outputs": [],
      "stateMutability": "nonpayable",
      "type": "function"
    },
    {
      "inputs": [
        {
          "internalType": "address",
          "name": "",
          "type": "address"
        }
      ],
      "name": "stakes",
      "outputs": [
        {
          "internalType": "uint256",
          "name": "",
          "type": "uint256"
        }
      ],
      "stateMutability": "view",
      "type": "function"
    },
    {
      "inputs": [],
      "name": "stakingToken",
      "outputs": [
        {
          "internalType": "contract IERC20",
          "name": "",
          "type": "address"
        }
      ],
      "stateMutability": "view",
      "type": "function"
    },
    {
      "inputs": [],
      "name": "totalStaked",
      "outputs": [
        {
          "internalType": "uint256",
          "name": "",
          "type": "uint256"
        }
      ],
      "stateMutability": "view",
      "type": "function"
    },
    {
      "inputs": [
        {
          "internalType": "address",
          "name": "",
          "type": "address"
        }
      ],
      "name": "userBets",
      "outputs": [
        {
          "internalType": "enum EventBetting.Outcome",
          "name": "",
          "type": "uint8"
        }
      ],
      "stateMutability": "view",
      "type": "function"
    },
    {
      "inputs": [
        {
          "internalType": "uint256",
          "name": "",
          "type": "uint256"
        }
      ],
      "name": "users",
      "outputs": [
        {
          "internalType": "address",
          "name": "",
          "type": "address"
        }
      ],
      "stateMutability": "view",
      "type": "function"
    },
    {
      "inputs": [],
      "name": "withdrawUnresolvedStake",
      "outputs": [],
      "stateMutability": "nonpayable",
      "type": "function"
    }
  ],
  "bytecode": "0x608060405234801561001057600080fd5b5060405161189838038061189883398181016040528101906100329190610165565b816000806101000a81548173ffffffffffffffffffffffffffffffffffffffff021916908373ffffffffffffffffffffffffffffffffffffffff160217905550804261007e91906101d4565b60018190555033600260006101000a81548173ffffffffffffffffffffffffffffffffffffffff021916908373ffffffffffffffffffffffffffffffffffffffff1602179055505050610208565b600080fd5b600073ffffffffffffffffffffffffffffffffffffffff82169050919050565b60006100fc826100d1565b9050919050565b61010c816100f1565b811461011757600080fd5b50565b60008151905061012981610103565b92915050565b6000819050919050565b6101428161012f565b811461014d57600080fd5b50565b60008151905061015f81610139565b92915050565b6000806040838503121561017c5761017b6100cc565b5b600061018a8582860161011a565b925050602061019b85828601610150565b9150509250929050565b7f4e487b7100000000000000000000000000000000000000000000000000000000600052601160045260246000fd5b60006101df8261012f565b91506101ea8361012f565b9250828201905080821115610202576102016101a5565b5b92915050565b611681806102176000396000f3fe608060405234801561001057600080fd5b50600436106100b45760003560e01c8063817b1cd211610071578063817b1cd2146101a3578063990e70b0146101c1578063b3139b8f146101f1578063dcb3b30e1461020d578063f6095f9b14610229578063f851a44014610233576100b4565b806316934fc4146100b9578063365b98b2146100e95780633a9b9821146101195780634e92a64614610137578063670750321461016757806372f702f314610185575b600080fd5b6100d360048036038101906100ce9190610dc0565b610251565b6040516100e09190610e06565b60405180910390f35b61010360048036038101906100fe9190610e4d565b610269565b6040516101109190610e89565b60405180910390f35b6101216102a8565b60405161012e9190610ebf565b60405180910390f35b610151600480360381019061014c9190610dc0565b6102bb565b60405161015e9190610f51565b60405180910390f35b61016f6102db565b60405161017c9190610e06565b60405180910390f35b61018d6102e1565b60405161019a9190610fcb565b60405180910390f35b6101ab610305565b6040516101b89190610e06565b60405180910390f35b6101db60048036038101906101d6919061100b565b61030b565b6040516101e89190610e06565b60405180910390f35b61020b6004803603810190610206919061100b565b610323565b005b61022760048036038101906102229190611038565b610754565b005b610231610b35565b005b61023b610d37565b6040516102489190610e89565b60405180910390f35b60066020528060005260406000206000915090505481565b6003818154811061027957600080fd5b906000526020600020016000915054906101000a900473ffffffffffffffffffffffffffffffffffffffff1681565b600460009054906101000a900460ff1681565b60076020528060005260406000206000915054906101000a900460ff1681565b60015481565b60008054906101000a900473ffffffffffffffffffffffffffffffffffffffff1681565b60055481565b60086020528060005260406000206000915090505481565b600260009054906101000a900473ffffffffffffffffffffffffffffffffffffffff1673ffffffffffffffffffffffffffffffffffffffff163373ffffffffffffffffffffffffffffffffffffffff16146103b3576040517f08c379a00000000000000000000000000000000000000000000000000000000081526004016103aa906110fb565b60405180910390fd5b60015442116103f7576040517f08c379a00000000000000000000000000000000000000000000000000000000081526004016103ee90611167565b60405180910390fd5b600460009054906101000a900460ff1615610447576040517f08c379a000000000000000000000000000000000000000000000000000000000815260040161043e906111d3565b60405180910390fd5b6001600281111561045b5761045a610eda565b5b81600281111561046e5761046d610eda565b5b148061049d575060028081111561048857610487610eda565b5b81600281111561049b5761049a610eda565b5b145b6104dc576040517f08c379a00000000000000000000000000000000000000000000000000000000081526004016104d39061123f565b60405180910390fd5b6001600460006101000a81548160ff0219169083151502179055507fe64285965494c72c06b6e0516fd4c78ef624d1c68764b8087b2beb1b8231a2ae816040516105269190610f51565b60405180910390a160006008600083600281111561054757610546610eda565b5b600281111561055957610558610eda565b5b815260200190815260200160002054905060008111156107505760005b60038054905081101561074e576000600382815481106105995761059861125f565b5b9060005260206000200160009054906101000a900473ffffffffffffffffffffffffffffffffffffffff1690508360028111156105d9576105d8610eda565b5b600760008373ffffffffffffffffffffffffffffffffffffffff1673ffffffffffffffffffffffffffffffffffffffff16815260200190815260200160002060009054906101000a900460ff16600281111561063857610637610eda565b5b03610740576000600660008373ffffffffffffffffffffffffffffffffffffffff1673ffffffffffffffffffffffffffffffffffffffff1681526020019081526020016000205490506000846005548361069291906112bd565b61069c919061132e565b905060008054906101000a900473ffffffffffffffffffffffffffffffffffffffff1673ffffffffffffffffffffffffffffffffffffffff1663a9059cbb84836040518363ffffffff1660e01b81526004016106f992919061135f565b6020604051808303816000875af1158015610718573d6000803e3d6000fd5b505050506040513d601f19601f8201168201806040525081019061073c91906113b4565b5050505b508080600101915050610576565b505b5050565b600154421115610799576040517f08c379a00000000000000000000000000000000000000000000000000000000081526004016107909061142d565b60405180910390fd5b600081116107dc576040517f08c379a00000000000000000000000000000000000000000000000000000000081526004016107d390611499565b60405180910390fd5b600160028111156107f0576107ef610eda565b5b82600281111561080357610802610eda565b5b1480610832575060028081111561081d5761081c610eda565b5b8260028111156108305761082f610eda565b5b145b610871576040517f08c379a00000000000000000000000000000000000000000000000000000000081526004016108689061123f565b60405180910390fd5b60008054906101000a900473ffffffffffffffffffffffffffffffffffffffff1673ffffffffffffffffffffffffffffffffffffffff166323b872dd3330846040518463ffffffff1660e01b81526004016108ce939291906114b9565b6020604051808303816000875af11580156108ed573d6000803e3d6000fd5b505050506040513d601f19601f8201168201806040525081019061091191906113b4565b506000600660003373ffffffffffffffffffffffffffffffffffffffff1673ffffffffffffffffffffffffffffffffffffffff16815260200190815260200160002054036109bd576003339080600181540180825580915050600190039060005260206000200160009091909190916101000a81548173ffffffffffffffffffffffffffffffffffffffff021916908373ffffffffffffffffffffffffffffffffffffffff1602179055505b80600660003373ffffffffffffffffffffffffffffffffffffffff1673ffffffffffffffffffffffffffffffffffffffff1681526020019081526020016000206000828254610a0c91906114f0565b9250508190555081600760003373ffffffffffffffffffffffffffffffffffffffff1673ffffffffffffffffffffffffffffffffffffffff16815260200190815260200160002060006101000a81548160ff02191690836002811115610a7557610a74610eda565b5b02179055508060086000846002811115610a9257610a91610eda565b5b6002811115610aa457610aa3610eda565b5b81526020019081526020016000206000828254610ac191906114f0565b925050819055508060056000828254610ada91906114f0565b925050819055503373ffffffffffffffffffffffffffffffffffffffff167f9f6b4cced64244a64465098f682029975b1614400b96bc6bd12c6680837191668383604051610b29929190611524565b60405180910390a25050565b6001544211610b79576040517f08c379a0000000000000000000000000000000000000000000000000000000008152600401610b7090611167565b60405180910390fd5b600460009054906101000a900460ff1615610bc9576040517f08c379a0000000000000000000000000000000000000000000000000000000008152600401610bc0906115bf565b60405180910390fd5b6000600660003373ffffffffffffffffffffffffffffffffffffffff1673ffffffffffffffffffffffffffffffffffffffff16815260200190815260200160002054905060008111610c50576040517f08c379a0000000000000000000000000000000000000000000000000000000008152600401610c479061162b565b60405180910390fd5b6000600660003373ffffffffffffffffffffffffffffffffffffffff1673ffffffffffffffffffffffffffffffffffffffff1681526020019081526020016000208190555060008054906101000a900473ffffffffffffffffffffffffffffffffffffffff1673ffffffffffffffffffffffffffffffffffffffff1663a9059cbb33836040518363ffffffff1660e01b8152600401610cf092919061135f565b6020604051808303816000875af1158015610d0f573d6000803e3d6000fd5b505050506040513d601f19601f82011682018060405250810190610d3391906113b4565b5050565b600260009054906101000a900473ffffffffffffffffffffffffffffffffffffffff1681565b600080fd5b600073ffffffffffffffffffffffffffffffffffffffff82169050919050565b6000610d8d82610d62565b9050919050565b610d9d81610d82565b8114610da857600080fd5b50565b600081359050610dba81610d94565b92915050565b600060208284031215610dd657610dd5610d5d565b5b6000610de484828501610dab565b91505092915050565b6000819050919050565b610e0081610ded565b82525050565b6000602082019050610e1b6000830184610df7565b92915050565b610e2a81610ded565b8114610e3557600080fd5b50565b600081359050610e4781610e21565b92915050565b600060208284031215610e6357610e62610d5d565b5b6000610e7184828501610e38565b91505092915050565b610e8381610d82565b82525050565b6000602082019050610e9e6000830184610e7a565b92915050565b60008115159050919050565b610eb981610ea4565b82525050565b6000602082019050610ed46000830184610eb0565b92915050565b7f4e487b7100000000000000000000000000000000000000000000000000000000600052602160045260246000fd5b60038110610f1a57610f19610eda565b5b50565b6000819050610f2b82610f09565b919050565b6000610f3b82610f1d565b9050919050565b610f4b81610f30565b82525050565b6000602082019050610f666000830184610f42565b92915050565b6000819050919050565b6000610f91610f8c610f8784610d62565b610f6c565b610d62565b9050919050565b6000610fa382610f76565b9050919050565b6000610fb582610f98565b9050919050565b610fc581610faa565b82525050565b6000602082019050610fe06000830184610fbc565b92915050565b60038110610ff357600080fd5b50565b60008135905061100581610fe6565b92915050565b60006020828403121561102157611020610d5d565b5b600061102f84828501610ff6565b91505092915050565b6000806040838503121561104f5761104e610d5d565b5b600061105d85828601610ff6565b925050602061106e85828601610e38565b9150509250929050565b600082825260208201905092915050565b7f4f6e6c792061646d696e2063616e2063616c6c20746869732066756e6374696f60008201527f6e00000000000000000000000000000000000000000000000000000000000000602082015250565b60006110e5602183611078565b91506110f082611089565b604082019050919050565b60006020820190508181036000830152611114816110d8565b9050919050565b7f42657474696e6720706572696f64206973207374696c6c206163746976650000600082015250565b6000611151601e83611078565b915061115c8261111b565b602082019050919050565b6000602082019050818103600083015261118081611144565b9050919050565b7f4576656e742068617320616c7265616479206265656e207265736f6c76656400600082015250565b60006111bd601f83611078565b91506111c882611187565b602082019050919050565b600060208201905081810360008301526111ec816111b0565b9050919050565b7f496e76616c6964206f7574636f6d650000000000000000000000000000000000600082015250565b6000611229600f83611078565b9150611234826111f3565b602082019050919050565b600060208201905081810360008301526112588161121c565b9050919050565b7f4e487b7100000000000000000000000000000000000000000000000000000000600052603260045260246000fd5b7f4e487b7100000000000000000000000000000000000000000000000000000000600052601160045260246000fd5b60006112c882610ded565b91506112d383610ded565b92508282026112e181610ded565b915082820484148315176112f8576112f761128e565b5b5092915050565b7f4e487b7100000000000000000000000000000000000000000000000000000000600052601260045260246000fd5b600061133982610ded565b915061134483610ded565b925082611354576113536112ff565b5b828204905092915050565b60006040820190506113746000830185610e7a565b6113816020830184610df7565b9392505050565b61139181610ea4565b811461139c57600080fd5b50565b6000815190506113ae81611388565b92915050565b6000602082840312156113ca576113c9610d5d565b5b60006113d88482850161139f565b91505092915050565b7f42657474696e6720706572696f642068617320656e6465640000000000000000600082015250565b6000611417601883611078565b9150611422826113e1565b602082019050919050565b600060208201905081810360008301526114468161140a565b9050919050565b7f5374616b65206d7573742062652067726561746572207468616e203000000000600082015250565b6000611483601c83611078565b915061148e8261144d565b602082019050919050565b600060208201905081810360008301526114b281611476565b9050919050565b60006060820190506114ce6000830186610e7a565b6114db6020830185610e7a565b6114e86040830184610df7565b949350505050565b60006114fb82610ded565b915061150683610ded565b925082820190508082111561151e5761151d61128e565b5b92915050565b60006040820190506115396000830185610f42565b6115466020830184610df7565b9392505050565b7f43616e6e6f7420776974686472617720616674657220746865206576656e742060008201527f6973207265736f6c766564000000000000000000000000000000000000000000602082015250565b60006115a9602b83611078565b91506115b48261154d565b604082019050919050565b600060208201905081810360008301526115d88161159c565b9050919050565b7f4e6f207374616b6520746f207769746864726177000000000000000000000000600082015250565b6000611615601483611078565b9150611620826115df565b602082019050919050565b6000602082019050818103600083015261164481611608565b905091905056fea26469706673582212204b60280b0f4f91d28f86f05807642375561bc38757a98e14e1c513c32bf7f24264736f6c634300081b0033",
  "linkReferences": {},
  "deployedLinkReferences": {}
}